:020000040800F2
:10000000500D0020A102000839490008AD3E00084B
:100010003549000861150008B555000800000000CA
:10002000000000000000000000000000914F0008E8
:100030006515000800000000294D0008E94F000880
:10004000BB020008BB020008BB020008BB0200089C
:10005000BB020008BB020008BB020008BB0200088C
:10006000BB020008BB020008BB020008BB0200087C
:10007000BB020008BB020008BB020008BB0200086C
:10008000BB020008BB020008BB020008BB0200085C
:10009000BB020008BB020008BB020008BB0200084C
:1000A000BB020008BB020008BB020008BB0200083C
:1000B00061500008BB020008BB020008BB02000838
:1000C000BB020008BB020008BB020008BB0200081C
:1000D000BB020008BB020008BB020008BB0200080C
:1000E000BB020008BB020008BB02000800F002F8D7
:1000F00000F0C6F814A696E8000CB244B344DA4502
:1001000001D100F0BDF8BAE80F000FA696E8300064
:10011000A5EB040504EB0607AAEB0704A7F101070A
:100120004FEA15154FEA3414A4F10104AC4201D38F
:1001300000F0A6F813F0010F18BFFB1A43F00103FB
:1001400000F001F8DBE718477060000090600000E5
:100150000A444FF0000C10F8013B13F0070408BFED
:1001600010F8014B1D1108BF10F8015B641E05D08B
:1001700010F8016B641E01F8016BF9D113F0080F40
:100180001EBF10F8014BAD1C0C1B09D16D1E58BFD2
:1001900001F801CBFAD505E014F8016B01F8016B09
:1001A0006D1EF9D59142D6D370470000704700000C
:1001B0000023002400250026103A28BF78C1FBD870
:1001C000520728BF30C148BF0B6070476E2900F04E
:1001D000CD81702900F00F83662905F049876529D4
:1001E00005F04687672905F04387612905F04287B6
:1001F00003681B0A28BF41F08001692900F07A8159
:10020000642900F07781752900F074816F2900F06E
:100210009D82782900F0DB82E92900F03782E42909
:1002200000F03482F52900F03182EF2900F09A8243
:10023000F82900F0DA820368DB0928BF41F0800169
:10024000632901F00D80732901F01280E32901F088
:100250001D80F32901F02280002070471FB501F0B6
:1002600073F804000020002105F0ECFE401C6060E3
:100270000020002105F0D0FEE0601FBD10B510BDCC
:1002800001F034F81146FFF7E9FF05F02FFA01F00D
:1002900011F903B4FFF7F2FF03BC01F059F90000B4
:1002A0000948804709480047FEE7FEE7FEE7FEE70A
:1002B000FEE7FEE7FEE7FEE7FEE7FEE70448054946
:1002C000054A064B704700005D500008ED0000082D
:1002D00050070020500D0020500900205009002038
:1002E0000FB41CB5084B06AA7B44694600900598DC
:1002F00000F055F904460020694600F063F92046F5
:100300001CBC5DF814FB0000D9020000032A40F277
:10031000308010F0030C00F0158011F8013BBCF1A7
:10032000020F624498BF11F801CB00F8013B38BFBF
:1003300011F8013BA2F1040298BF00F801CB38BFCD
:1003400000F8013B11F0030300F02483083AC0F0E9
:10035000088051F8043B083A51F804CBA0E8081093
:10036000F5E7121D5CBF51F8043B40F8043BAFF3C6
:100370000080D20724BF11F8013B11F801CB48BF20
:1003800011F8012B24BF00F8013B00F801CB48BF56
:1003900000F8012B70474FF000020429C0F01280D2
:1003A00010F0030C00F01B80CCF1040CBCF1020F28
:1003B00018BF00F8012BA8BF20F8022BA1EB0C01FD
:1003C00000F00DB85FEAC17C24BF00F8012B00F8F3
:1003D000012B48BF00F8012B70474FF0000200B519
:1003E000134694469646203922BFA0E80C50A0E858
:1003F0000C50B1F12001BFF4F7AF090728BFA0E806
:100400000C5048BF0CC05DF804EB890028BF40F8D1
:10041000042B08BF704748BF20F8022B11F0804F13
:1004200018BF00F8012B704770477047704770B5D0
:10043000044685690068C10601D5302600E0202603
:10044000C00707D070BDD4E9012130469047206A2B
:10045000401C20626D1EF6D570BD70B504468569DE
:100460000078C00707D170BDD4E901212020904752
:10047000206A401C20626D1EF6D570BD09684A05D1
:1004800001D540B27047C905FCD500B27047096874
:100490004A0501D5C0B27047C905FCD580B2704786
:1004A00070B50C460546012A05D02878800600D58F
:1004B000EA69002302E0012305E05B1C934202D2BB
:1004C000E05C0028F9D1A869E618C01AA861286A7A
:1004D000184428622846FFF7AAFF04E0D5E9012165
:1004E00014F8010B9047B442F8D32846FFF7B5FF44
:1004F00070BD00002DE9F041064600241068752902
:10050000314616A510D0FFF7B9FF002802DA4042A5
:1005100013A507E031688A0701D512A502E0490753
:1005200004D511A5012401E0FFF7B1FF00210A2243
:1005300006F1240709E0B0FBF2FCB0FBF2F302FB8A
:100540001C00303078541846491C0028F3D123464B
:100550002A463046BDE8F04100F093BA00000000A2
:100560002D0000002B000000200000001168026830
:10057000006A530501D508700AE0D30501D508804B
:1005800006E0130603D5C217C1E9000200E00860C7
:100590000120704701694A1C02610878704700B564
:1005A0008FB0CDE901310021059105497944CDE9AC
:1005B00003101146684600F029F90FB000BD000095
:1005C000E5FFFFFF0A6802F8010B0A6070470000B0
:1005D0002DE9FF5F15468A460446DFF8AC80F844F3
:1005E0000027D8E900103E46CDE9001010E03AF8A7
:1005F00016106A4602A800F055FE411C07D021786B
:10060000890603D5E269391891420DD80744761C52
:100610002078800602D5E069B84205DDAE42E6DB0F
:100620003AF816000028E2D1A069C01BA06120465C
:10063000FFF7FDFED8E90010CDE90010002017E01B
:100640003AF818106A4602A800F02CFEB0F1FF3FFD
:1006500081460BD000250DF1080B05E0D4E90121FE
:100660001BF8050090476D1C4D45F7D308F10100BC
:10067000B0428046E4DB206A384420622046FFF71F
:10068000ECFEBDE8FF9F0000965A00002DE9F04106
:100690008046D21D22F007020025D2E90002F5298A
:1006A00015A614D0011E72F1000106DA0023D0EB6A
:1006B000030063EB020211A608E0D8F800108B07D4
:1006C00001D50FA602E0490701D50EA60125114666
:1006D000002408F1240704E000F08EF930323A5586
:1006E000641C50EA0102F7D12B46324621464046AF
:1006F000BDE8F04100F0C5B9000000002D00000089
:100700002B0000002000000030B4002100F1240480
:1007100008E002F00705D208303542EA4372DB08F0
:100720006554491C52EA0305F3D10468002310A262
:10073000250708D504F020040C4304D0C469012324
:100740000CA2641EC46130BC00F09BB910B5044615
:1007500021461068FFF79BFE02462046BDE8104088
:100760000023D1E7D21D22F00701D1E90023CBE716
:100770000000000030000000F0B40D4601880905BB
:1007800002D5214C7C4402E01F4C7C440E340021F5
:1007900000F1240608E002F00F071209E75D42EAC3
:1007A00003721B097754491C52EA0307F3D10278FC
:1007B0000023120704D5702D06D009B1022311348D
:1007C0002246F0BC00F05DB901231034F8E770B5A3
:1007D00004460D4621461068FFF759FE0246294699
:1007E0002046BDE870400023C6E7D21D22F0070373
:1007F000D3E90023C0E70368126843F020030360D5
:100800000823C3610023B7E7F85800002DE9F05F23
:10081000894604464FF0000ADFF874B1FB44C0F883
:1008200020A02046E1688847002874D0252806D0FB
:10083000D4E901219047206A401C2062F1E700269C
:100840005F462046E16888472028054607DB312DB2
:1008500005D2781910F8200C08B10643F1E7B0076B
:1008600001D526F00406C4F81CA00027C4F818A07F
:100870002A2D09D0284605F0C7FB38B304EB8708BA
:10088000303DC8F8185019E059F8041B204604EB15
:1008900087029161E1688847012F054618D1E06918
:1008A000002820DA26F020061DE0D8F8180000EB1A
:1008B000800005EB40003038C8F818002046E16899
:1008C0008847054605F0A0FB0028EED1012F0AD08D
:1008D0002E2D08D12046E16888477F1C0546022F4F
:1008E00046F02006C4DBA069002803DA404246F047
:1008F0000106A061F00701D026F010066C2D0BD088
:10090000682D09D04C2D39D06A2D35D0742D35D0B5
:100910007A2D33D016E038E0E1682F46204688472C
:10092000B842054609D16C2F26D04FF48060E168AB
:10093000064320468847054604E06C2F1AD04FF442
:10094000807006430DB3A5F14100192802D8203567
:1009500046F400664A462946204626604E46FFF782
:1009600035FC80B101280BD0F61D26F0070000F100
:10097000080956E74020E4E78020D8E70020D6E7C2
:1009800006F104094DE7284652E7206ABDE8F09FCA
:100990008858000010B5203AC0F00B80B1E818501C
:1009A000A0E81850B1E81850A0E81850203ABFF459
:1009B000F5AF5FEA027C24BFB1E81850A0E81850F8
:1009C00044BF18C918C0BDE810405FEA827C24BF4C
:1009D00051F8043B40F8043B08BF7047D20728BFDA
:1009E00031F8023B48BF11F8012B28BF20F8023B29
:1009F00048BF00F8012B704730B5B0F10A0271F121
:100A000000034FEA900E4EEA817EB0EB0E0061EBE0
:100A100091014FEA101E4EEA017E10EB0E0041EBF1
:100A200011114FEA102E4EEA016E10EB0E0041EB51
:100A300011214FEA104E4EEA014E10EB0E0041EB31
:100A40001141401841F100014FEAD00040EA4170E5
:100A50004FEAD1014FEA810444EA907410EB80051B
:100A600044EB01046D1944EB0404521BA3414FF005
:100A7000000348BF0A3200D530BD401C41F10001DF
:100A800030BD2DE9F0470D4699469246044600F1E7
:100A900024080168880604D5E06921F0100121606E
:100AA00000E00120A84201DD471B00E00027A1690A
:100AB0007A1902EB0900081AA0612078C00602D456
:100AC0002046FFF7B4FC002608E0D4E901211AF81B
:100AD00006009047206A401C761C20624E45F4DBDD
:100AE0002078C0060AD52046FFF7A1FC06E0D4E92D
:100AF000012130209047206A401C2062381EA7F157
:100B00000107F4DC07E0D4E9012118F8050090475B
:100B1000206A401C2062281EA5F10105F3DC204656
:100B2000FFF79BFC2078000602D50220BDE8F08785
:100B30000120FBE72DE9FF4F0C461E464FF0FF3723
:100B40008BB0D2E90001DDF860800A908A46C1F3DB
:100B50000A5505B93D46002108464FF00000BAF19C
:100B6000000F00F4400005DA00EB80004FF4400174
:100B700001EA50004FEA9059B9F1010F00DDB94682
:100B80000A9850EA4A000ED044F61050A5F2FF35FC
:100B900045432F14B8F1000F1ED07542291E1EDDEB
:100BA000C9F100021CE0B8F1010F4FF0000001D0C4
:100BB000302103E0F24305E02154401CB042FBDB4E
:100BC00030460022002121540B99C1F80880C1E968
:100BD00000200FB0BDE8F08FBD1B6D1CDEE74A465C
:100BE00000DA694206A800F0F3FB06AB93E80700C1
:100BF00003AB83E8070050460A9904F029FE8DE80C
:100C00000700A0F500501F3800900398002D0ADD62
:100C100042F21F014A460844002303A90390684694
:100C200005F092F809E0A0F500504A461F3800236D
:100C300003A90390684605F09CF88DE807000004BE
:100C4000000C03D04FF0FF30410800E01046B8F12F
:100C5000000F03D00022009215461EE0751E05D439
:100C6000FFF7CAFE303262556D1EF9D5B346012238
:100C7000084302D000227F1C04E02078302801D1F4
:100C800000227F1E002A099784D01DE0112D07DA6B
:100C9000FFF7B2FE303262556D1C50EA0102F5D109
:100CA000084302D00098C8B10EE00021681E05E09C
:100CB000235C625C63542254401E491C8142F7DB72
:100CC000AB46A81B401E0990002004F80B000B98AF
:100CD000099AC0F80880C0E9002B7AE711264FF086
:100CE000000857E72DE9F04F88460446D21D22F050
:100CF000070191B0D1E90001CDE90A0105F070F9D1
:100D000002460B98C00F01D02D2007E02068810714
:100D100001D52B2002E0202101EAC000032A09901E
:100D200001D0072A05DB03464146204600F010FBB0
:100D30000BE12078800601D5E06900E00620B8F1DB
:100D4000650F814606D0B8F1660F18D0B8F1670F6D
:100D500070D131E00020B9F1110F009001DB1123B7
:100D600001E009F101030AAA01A90CA8FFF7E2FEBC
:100D7000DDE90C70002609F10105834647E00120FA
:100D80004B4600904FF000470AAA01A90CA8FFF7B4
:100D9000D1FEDDE90DB00C995D46002610B909F1D0
:100DA00001000D18B9EB050003D4C0F1FF3609F1BD
:100DB0000105A5EB09002BE0B9F1010F01DA4FF0B5
:100DC00001090020B9F1110F0090484601DD1123FF
:100DD00000E003460AAA01A90CA8FFF7ABFEDDE973
:100DE0000C704D4600268346207800070AD4AB4598
:100DF00000DA5D4601A8012D04DD411911F8011C3E
:100E0000302907D04F4502DA17F1040F04DA012028
:100E100082460FE06D1EEEE7002F02DCED1B3E4424
:100E200003E0781CA84200DD7D1CB81B00F1010A1C
:100E30004FF000472078000703D4AA4501DB4FF0AC
:100E4000FF3A0021B7F1004F0DF143088DF8431030
:100E500024D002202B23002F01DA7F422D230A21E8
:100E6000021EA0F1010000DC5FB197FBF1FC97FBD3
:100E7000F1F201FB1C7C17460CF1300C08F801CD97
:100E8000EEE7A8F1010003702188090501D545218D
:100E900000E06521A0F1010800F8011C09980FA9E4
:100EA000A1EB0807FF1D00B10120411901EBEA7019
:100EB000A1693844081A401EA0612078C00602D4F7
:100EC0002046FFF7B4FA099828B1D4E901219047E8
:100ED000206A401C20622078C00622D52046FFF7F9
:100EE000A6FA1EE0002E04DBB34502DD01A8805DFA
:100EF00000E03020D4E901219047206A401C2062A4
:100F0000761CAAF101005FEA000A0AD100F01CFA7F
:100F1000C0680168405CD4E901219047206A401C08
:100F20002062281EA5F10105DCDC07E0D4E90121DF
:100F300018F8010B9047206A401C2062381EA7F168
:100F40000107F3DC2046FFF788FA032011B041E6E1
:100F50002DE9F04F04460D46D21D22F0070089B05E
:100F6000D0E900974846394605F03AF80246F80FAE
:100F700001D02D2307E02068810701D52B2302E053
:100F8000202101EAC0038DF820300BB1012000E0E0
:100F90000020032A824601D0072A04DB2946204686
:100FA00000F0D6F93FE12078800601D40D2500E05D
:100FB000E569C7F30A560D2D49DA00214FEA175BA0
:100FC00008464FF00000002F00F4400007DA00EB65
:100FD00080004FF4400100EBD07001EA6000811501
:100FE000012901DD4FF0FF3100224FEA850CBCF1F1
:100FF000180F06D31346ACF118004FF08052C240D0
:1010000003E04FF4801323FA0CF30CF10C0CBCF149
:10101000200F04D3ACF1200C09FA0CF001E007FA20
:101020000CF000294FF0004801DD18B90FE00ED197
:1010300040450CD319EB02095F4121B9404502D16B
:101040009F4329EA0209BBEB175F00D0761C20887A
:10105000000502D57B48784402E07A487844193884
:1010600008AA302302F80A30037C0AF10101002E9D
:101070000AF1020A53546A4602DC4FF0300101E0E3
:101080004FF031014FF001088DF8001002D0A6F2A8
:10109000FF3603E059EA470100D06B4E002D02DC19
:1010A0002178090704D54FF002082E218DF8011090
:1010B000C44600210BE0C7F303433F01C35C491C56
:1010C0006D1E02F80830052908F1010801DA002D2B
:1010D000F1DC00210CE000EB1973491C1B786D1E3C
:1010E000082902F808304FEA091908F1010801DA65
:1010F000002DF0DC21688B0602D516E0A8F101086E
:10110000E04505DD02EB080313F8013C302BF5D078
:10111000B8F1000F09DD02EB080313F8013C2E2B98
:1011200003D1090701D4A8F10108002D05DD3E21F6
:1011300002F808106D1E08F10108407C002E02F82C
:10114000080008F1010804DA2D20764202F80800B0
:1011500002E02B2002F808000A214FF47A70864240
:1011600008F101080BDB96FBF0F3303302F808308E
:1011700096FBF0F308F1010800FB136601E0642E12
:101180000CDB642096FBF0F3303302F8083096FB5A
:10119000F0F308F1010800FB136601E00A2E06DBFC
:1011A00096FBF1F0303002F8080008F1010896FBD8
:1011B000F1F001FB1060303002F80800A16908F17D
:1011C000010808EB050202EB0A00081AA06120786A
:1011D000C00602D42046FFF72AF9216A08AE01EBC7
:1011E0000A00206204E0D4E9012116F8010B9047BF
:1011F000BAF1010AF7D22078C00602D52046FFF7DF
:1012000016F96E4609E016F8010B3E280FD0D4E916
:1012100001219047206A401C2062B8F10108F2D2F7
:101220002046FFF71AF909B00320BDE8F08F206AC5
:101230002844206203E0D4E90121302090476D1E4C
:10124000EBD3F8E77250000002FCFFFF10B54369D2
:1012500013B1AFF3008001E0FFF722F9012010BDC8
:10126000127800F124010A7000224A700122EDE791
:1012700011684FF0FF32E9E710B5436913B1AFF3DE
:10128000008001E0FFF7A4F9012010BD128800F1F1
:10129000240182840022C2840122EDE711684FF00C
:1012A000FF32E9E72DE9F04116460C46054600F00D
:1012B00043F8036893F80101012807D0FF2C12D8E6
:1012C000185D80B101202C70BDE8F081D3F80701D2
:1012D0003246214603F20713C7182846BC46BDE82C
:1012E000F041002360474FF0FF30EDE7754600F016
:1012F000EBF8AE4605006946534620F007008546E8
:1013000018B020B5FEF7DAFFBDE820404FF0000628
:101310004FF000074FF000084FF0000BAC46ACE870
:10132000C009ACE8C009ACE8C009ACE8C00921F0CC
:1013300007018D467047000010B500F005F8001D4C
:1013400010BD00BF014D000000487047580200204A
:101350002DE9F0411F46044603260168072A01F4DF
:10136000006004DB08B116A505E016A503E008B18E
:1013700015A500E015A521F010002060A069C01E91
:10138000A0610FB1401EA0612046FFF750F84FB199
:10139000D4E9012138469047206A401C2062C01CD5
:1013A000206206E0206AFAE7D4E9012115F8010B72
:1013B0009047761EF8D22046FFF74FF8BDE8F0813F
:1013C0004E414E006E616E00494E4600696E6600E9
:1013D0002DE9F047814616468AB0354878440DC855
:1013E0008DE80D0032487844801C03AC0DC884E8B9
:1013F0000D0041F69B300844372190FBF1F290FB41
:10140000F1F5A5F1800501FB12041B3C02D56442F5
:10141000012000E00020DFF898A080460027FA4471
:10142000AAF1BE0A0EE0E0070AD03246684607EB92
:10143000470101230AEB810104F09BFC8DE80700C2
:1014400064107F1C002CEED1194F7F44AE3F19E091
:10145000E80715D007EB04100DF1180A90E80E000C
:101460008AE80E00C068F04201D19819089032460F
:10147000012306A903A804F07CFC03AB83E8070062
:101480006D10641C002DE3D14FF001033246694614
:10149000B8F1000F03A802D004F056FC01E004F0FC
:1014A00068FCC9E90001C9F808200AB0BDE8F08766
:1014B0007C4D000010B50446AFF300802046BDE827
:1014C0001040FEF7E6BE00000048704738020020DA
:1014D0004FF0013C50F8042B51F8043B9A4221D1C3
:1014E000A2EB0C03934313EACC1317D150F8042B4F
:1014F00051F8043B9A4215D1A2EB0C03934313EA33
:10150000CC130BD150F8042B51F8043B9A4209D16B
:10151000A2EB0C03934313EACC13DBD04FF0000093
:10152000704700BFD01A01BAB1FA81F101F0180179
:1015300022FA01F0CB40DBB2C0B2C01AC1F12001E7
:101540002CFA01F3D11A914311EAC311E6D1704785
:1015500001491820ABBEFEE72600020070470000DC
:10156000FFE7FEE77047000081B0EFF3108072B62E
:101570000090FFE7FEE7000080B584B0039000F024
:10158000C5F90290039801900198013048B1FFE736
:1015900040F22C20C2F2000001780198084401902A
:1015A000FFE7FFE700F0B2F90299401A019988427B
:1015B00001D2FFE7F6E704B080BD000090B00F90C5
:1015C0000E9100200D900990FFE70E9800680D998C
:1015D000C840002800F07F81FFE70D990120884076
:1015E0000C900E9800680C9908400B900B980C9981
:1015F000884240F06C81FFE70E9840680590002813
:1016000051D0FFE7059801283AD0FFE70598022856
:101610003FD0FFE7059803285FD0FFE70598112822
:1016200032D0FFE70598122838D0FFE7059800214F
:10163000C1F21101884236D0FFE705980021C1F2BE
:10164000120188422FD0FFE705980021C1F2210145
:10165000884228D0FFE705980021C1F22201884284
:1016600021D0FFE705980021C1F2310188421AD04C
:10167000FFE705980021C1F23201884213D02FE024
:101680000E98C06809902CE00E98C068043009904C
:1016900027E00E98C0680830099022E00E98C068D4
:1016A0000C3009901DE00E98806818B9FFE70420FF
:1016B000099011E00E988068012806D1FFE7082004
:1016C00009900C980F99086105E0082009900C9882
:1016D0000F994861FFE7FFE703E00020099000E071
:1016E000FFE70B98FF2803D8FFE70F98049003E06B
:1016F0000F9804300490FFE7049808900B98FF2897
:1017000004D8FFE70D988000039006E00D996FF074
:101710001F0000EB81000390FFE7039807900898F3
:101720000068079A0F219140884309999140084326
:10173000089908600E98C079C006002840F1C6805C
:10174000FFE7FFE741F21800C4F20200016841F030
:1017500001010160006800F0010006900698FFE7B3
:101760000D9820F003000821C4F2010140580A90AE
:101770000D9800F0030081000F2000FA01F10A9893
:1017800088430A900F9840F60001C4F20101884294
:1017900003D1FFE70020029026E00F9840F60041B9
:1017A000C4F20101884203D1FFE70120019018E053
:1017B0000F9841F20001C4F20101884203D1FFE712
:1017C000022000900AE00F9941F20042C4F20102A7
:1017D0000420914208BF03200090FFE70098019089
:1017E000FFE701980290FFE702980D9901F00301CD
:1017F000890000FA01F10A9808430A900A980D99A5
:1018000021F003010822C4F2010288500E98807969
:10181000C006002809D5FFE70B9A40F20841C4F240
:10182000010108681043086008E00B9A40F2084183
:10183000C4F20101086890430860FFE70E988079C0
:101840008006002809D5FFE70B9A40F20C41C4F24C
:10185000010108681043086008E00B9A40F20C414F
:10186000C4F20101086890430860FFE70E98807990
:101870008007002809D5FFE70B9A40F20441C4F223
:10188000010108681043086008E00B9A40F2044127
:10189000C4F20101086890430860FFE70E98807960
:1018A000C00748B1FFE70B9A40F20041C4F20101C2
:1018B00008681043086008E00B9A40F20041C4F247
:1018C0000101086890430860FFE7FFE7FFE70D9814
:1018D00001300D9079E610B07047000082B00190A1
:1018E000ADF802108DF801209DF8010028B1FFE746
:1018F000BDF802000199086105E0BDF8020000048E
:1019000001990861FFE702B07047000040F248709B
:10191000C2F200000068704780B58EB00C900C9841
:1019200020B9FFE701208DF8370043E10C9890F8CB
:101930003D0040B9FFE70C99002081F83C000C986D
:1019400000F044FAFFE70C99242081F83D000C9840
:101950000168086820F0010008600C9801680868B8
:1019600040F4004008600C980168086820F40040CA
:10197000086000F055FC0A900C98406848F2A0619D
:10198000C0F2010188420BD8FFE70A9948F2804271
:10199000C0F21E020020914238BF012009900AE0E7
:1019A0000A9940F60012C0F23D020020914238BF71
:1019B00001200990FFE70998012804D1FFE70120E1
:1019C0008DF83700F6E00A984DF68361C4F21B31BA
:1019D000A0FB0110800C0B900C980068406820F070
:1019E0003F000B9908430C99096848600C980068FF
:1019F000006A20F03F0008900C98406848F2A0610F
:101A0000C0F20101884204D8FFE70B98013007902B
:101A10000EE00B984FF49671484344F6D351C1F24F
:101A20006201A0FB0101012000EB91100790FFE78C
:101A30000898079908430C99096808620C9800688F
:101A4000C0694CF6FF71884306900C98406848F2D4
:101A5000A061C0F2010188421FD8FFE70A9801384F
:101A60000C9949684900B0FBF1F001306FF31F3069
:101A7000032803D8FFE7042005900BE00A980138FB
:101A80000C9949684900B0FBF1F001306FF31F3049
:101A90000590FFE7059804904CE00C98806868B9C1
:101AA000FFE70A9801380C99496801EB4101B0FB46
:101AB000F1F001306FF31F3003900DE00A98013808
:101AC0000C99496819225143B0FBF1F0013004210F
:101AD00061F31F300390FFE70398000518B9FFE793
:101AE0000120029023E00C98806868B9FFE70A980B
:101AF00001380C99496801EB4101B0FBF1F001306C
:101B00006FF31F3001900DE00A9801380C99496875
:101B100019225143B0FBF1F00130042161F31F3071
:101B20000190FFE7019840F400400290FFE702981F
:101B30000490FFE70698049908430C990968C86166
:101B40000C980068006820F0C0000C9B1968DA69E6
:101B50001B6A1A43104308600C980068806848F2BA
:101B6000FF3188430C9A1168D36812691A431043F5
:101B700088600C980068C06820F0FF000C9B196812
:101B80005A699B691A431043C8600C980168086839
:101B900040F0010008600C99002008640C9A202194
:101BA00082F83D100C9908630C9981F83E008DF87D
:101BB0003700FFE79DF837000EB080BD10B588B044
:101BC00084460C980B98DDF828E0CDF818C0ADF8E5
:101BD0001610ADF81420ADF81230ADF81000FFF774
:101BE00095FE0390069890F83D00202840F0E6808E
:101BF000FFE7069803996A4611600221C0F21001BE
:101C00000122192302F07AFA20B1FFE702208DF8B1
:101C10001F00D7E0FFE7069890F83C00012804D1A8
:101C2000FFE702208DF81F00CCE00699012081F823
:101C30003C00FFE7FFE7069800680068C00738B976
:101C4000FFE706980168086840F001000860FFE7B8
:101C500006980168086820F4006008600699212051
:101C600081F83D000699402081F83E000699002049
:101C700008640A9806994862BDF8100006994885DC
:101C80000698408D0699088506990020CFF6FF70CA
:101C9000C8620698BDF81610BDF81420BDF81230C1
:101CA000DDF830C0039CEE46CEF80440CEF800C00C
:101CB00002F030F920B1FFE701208DF81F0081E02C
:101CC000FFE70698008D002849D0FFE706980C9999
:101CD000039A02F041FB80B1FFE70698006C0428EC
:101CE00007D1FFE706980168086840F400700860B3
:101CF000FFE701208DF81F0064E006980168406A44
:101D0000007808610699486A013048620699088D92
:101D1000013808850699488D01384885069800687D
:101D2000406900F004010120B0EB910F16D1FFE7EC
:101D30000698008D90B1FFE706980168406A007828
:101D400008610699486A013048620699088D013891
:101D500008850699488D01384885FFE7B1E7069860
:101D60000C99039A02F074F980B1FFE70698006CB1
:101D7000042807D1FFE706980168086840F400705E
:101D80000860FFE701208DF81F001BE0069801683E
:101D9000086840F4007008600699202081F83D0032
:101DA0000699002081F83E00FFE70699002081F89F
:101DB0003C00FFE700208DF81F0003E002208DF8B3
:101DC0001F00FFE79DF81F0008B010BD80B588B068
:101DD00007900020069005900490039007980068F3
:101DE00045F60001C4F2000188422DD1FFE7FFE76C
:101DF00041F21800C4F20200016841F008010160DC
:101E0000006800F0080002900298FFE74FF440607D
:101E10000390122004900320069040F60040C4F284
:101E2000010003A9FFF7CAFBFFE741F21C00C4F25F
:101E30000200016841F480010160006800F4800044
:101E400001900198FFE7FFE708B080BD40F22C2029
:101E5000C2F20000027840F24871C2F20001086844
:101E6000104408607047000080B542F20001C4F2DF
:101E70000201086840F010000860032000F096F8A6
:101E80000F2000F005F800F03BF8002080BD0000B6
:101E900080B582B0009040F22820C2F200000068B5
:101EA00040F22C21C2F200010A784FF47A71B1FBA2
:101EB000F2F1B0FBF1F001F09DFA20B1FFE7012053
:101EC0008DF8070018E000980F280DD8FFE700995B
:101ED0004FF0FF30002200F04FF8009840F2302120
:101EE000C2F20001086003E001208DF8070003E062
:101EF00000208DF80700FFE79DF8070002B080BDC5
:101F000083B0FFE741F21800C4F20200016841F01B
:101F100001010160006800F0010002900298FFE7F3
:101F2000FFE741F21C00C4F20200016841F0805159
:101F30000160006800F0805001900198FFE7FFE722
:101F40000421C4F2010108680090009820F0E060CC
:101F50000090009840F00070009000980860FFE743
:101F600003B0704780B582B08DF807009DF9070077
:101F700003F05CFB02B080BD80B586B08DF8170021
:101F8000049103920020029003F068FB02909DF9F7
:101F90001700019002980499039A02F0CFFC0146C1
:101FA000019803F063FB06B080BD000080B582B0ED
:101FB0000190019803F07CFB02B080BD80B584B035
:101FC00002900191029820B9FFE701208DF80F00DF
:101FD0001BE1019842F20001C4F20201096801F01C
:101FE0000701884216D9FFE742F20000C4F202005E
:101FF000016821F00701019A11430160006800F0B7
:1020000007000199884204D0FFE701208DF80F00F6
:10201000FBE0FFE702980078800700282AD5FFE759
:10202000029800784007002809D5FFE741F2040133
:10203000C4F20201086840F4E0600860FFE702981B
:1020400000780007002809D5FFE741F20401C4F237
:102050000201086840F460500860FFE741F20401A3
:10206000C4F20201086820F0F000029A926810435E
:102070000860FFE702980078C007002860D0FFE7FB
:102080000298406801280ED1FFE741F20000C4F237
:10209000020000688003002804D4FFE701208DF8C7
:1020A0000F00B2E021E00298406802280ED1FFE75D
:1020B00041F20000C4F2020000688001002804D44C
:1020C000FFE701208DF80F009FE00DE041F20000D6
:1020D000C4F2020000688007002804D4FFE7012052
:1020E0008DF80F0091E0FFE7FFE741F20401C4F231
:1020F0000201086820F00300029A52681043086049
:10210000FFF704FC0090FFE741F20400C4F2020074
:10211000006800F00C0002994968B0EB810F0ED006
:10212000FFE7FFF7F3FB0099401A41F2893188423B
:1021300004D3FFE703208DF80F0066E0E4E7FFE734
:10214000019842F20001C4F20201096801F007019E
:10215000884216D2FFE742F20000C4F20200016892
:1021600021F00701019A11430160006800F00700A7
:102170000199884204D0FFE701208DF80F0044E068
:10218000FFE702980078400700280CD5FFE741F2EE
:102190000401C4F20201086820F4E060029AD268E7
:1021A00010430860FFE702980078000700280DD56B
:1021B000FFE741F20401C4F20201086820F4605014
:1021C000029A126940EAC2000860FFE700F03AF89C
:1021D00041F20401C4F202010968C9B20A0946F2D7
:1021E0008811C0F60001895CC84040F22821C2F283
:1021F0000001086040F23020C2F200000068FFF7E2
:1022000047FE00208DF80F00FFE79DF80F0004B097
:1022100080BD000040F22820C2F200000068704734
:1022200080B5FFF7F7FF41F20401C4F2020109682B
:10223000C1F3022246F29811C0F60001895CC84041
:1022400080BD000086B000200590049003900290AD
:10225000019041F20400C4F2020000680590059864
:1022600000F00C000146009100283FD0FFE70098E5
:10227000042804D0FFE70098082806D037E041F290
:102280000020C0F27A00019037E00598C0F3834146
:1022900046F2A010C0F60000405C02909DF81600C7
:1022A000C007C0B1FFE741F20400C4F202000068B9
:1022B000C0F3404146F2B010C0F60000405C04900C
:1022C000029841F20021C0F27A0148430499B0FB20
:1022D000F1F0039007E0029840F60011C0F23D01D2
:1022E00048430390FFE70398019006E0FFE741F2BF
:1022F0000020C0F27A000190FFE7019806B0704715
:1023000080B586B00490049820B9FFE701208DF8CD
:1023100017002EE304980078C007002800F0AE8074
:10232000FFE741F20400C4F20200006800F00C0074
:10233000042813D0FFE741F20400C4F20200006851
:1023400000F00C0008281BD1FFE741F20400C4F2A2
:1023500002000068C003002812D5FFE741F2000028
:10236000C4F2020000688003002808D5FFE7049843
:10237000406820B9FFE701208DF81700F9E27CE002
:10238000FFE704984068B0F5803F09D1FFE741F2CC
:102390000001C4F20201086840F48030086032E0B5
:1023A0000498406868B9FFE741F20001C4F20201F5
:1023B000086820F480300860086820F480200860F5
:1023C00020E004984068B0F5A02F0DD1FFE741F25E
:1023D0000001C4F20201086840F480200860086827
:1023E00040F4803008600CE041F20001C4F20201C8
:1023F000086820F480300860086820F480200860B5
:10240000FFE7FFE7FFE7FFE704984068D0B1FFE789
:10241000FFF77CFA0390FFE741F20000C4F20200EC
:102420000068800300280CD4FFE7FFF76FFA0399D8
:10243000401A652804D3FFE703208DF8170098E2BF
:10244000EAE719E0FFF762FA0390FFE741F20000C4
:10245000C4F202000068800300280CD5FFE7FFF7F4
:1024600055FA0399401A652804D3FFE703208DF835
:1024700017007EE2EAE7FFE7FFE7FFE7049800784E
:102480008007002840F18D80FFE741F20400C4F28C
:102490000200006810F00C0F13D0FFE741F20400B7
:1024A000C4F20200006800F00C00082829D1FFE700
:1024B00041F20400C4F202000068C003002820D4E6
:1024C000FFE741F20000C4F2020000688007002824
:1024D00009D5FFE704980069012804D0FFE701202F
:1024E0008DF8170045E241F20001C4F202010868CC
:1024F00020F0F800049A526940EAC2000860FFE741
:102500004EE00498006958B3FFE70021C4F242216D
:1025100001200860FFF7FAF90390FFE741F200009D
:10252000C4F202000068800700280CD4FFE7FFF720
:10253000EDF90399401A032804D3FFE703208DF82F
:10254000170016E2EAE741F20001C4F2020108684E
:1025500020F0F800049A526940EAC20008601EE0C8
:102560000021C4F2422100200860FFF7CFF9039058
:10257000FFE741F20000C4F2020000688007002873
:102580000CD5FFE7FFF7C2F90399401A032804D3DB
:10259000FFE703208DF81700EBE1EAE7FFE7FFE72D
:1025A000FFE7049800780007002848D5FFE7049863
:1025B000806918B3FFE740F28041C4F24221012054
:1025C0000860FFF7A3F90390FFE741F22400C4F28B
:1025D00002000068800700280CD4FFE7FFF796F997
:1025E0000399401A032804D3FFE703208DF817004E
:1025F000BFE1EAE7012002F099FB1FE040F28041D1
:10260000C4F2422100200860FFF780F90390FFE741
:1026100041F22400C4F202000068800700280CD5B3
:10262000FFE7FFF773F90399401A032804D3FFE784
:1026300003208DF817009CE1EAE7FFE7FFE7049825
:1026400000784007002840F1D880FFE700208DF88F
:10265000070041F21C00C4F202000068C00000281C
:1026600013D4FFE7FFE741F21C00C4F20200016847
:1026700041F080510160006800F0805000900098A7
:10268000FFE701208DF80700FFE747F20000C4F2E2
:1026900000000068C005002822D4FFE747F20001CF
:1026A000C4F20001086840F480700860FFF72EF95A
:1026B0000390FFE747F20000C4F200000068C00585
:1026C00000280CD4FFE7FFF721F90399401A652889
:1026D00004D3FFE703208DF817004AE1EAE7FFE79C
:1026E000FFE70498C068012809D1FFE741F2200103
:1026F000C4F20201086840F00100086031E004986B
:10270000C06868B9FFE741F22001C4F2020108681D
:1027100020F001000860086820F0040008601FE055
:102720000498C06805280DD1FFE741F22001C4F2EA
:102730000201086840F004000860086840F00100E9
:1027400008600CE041F22001C4F20201086820F0A8
:1027500001000860086820F004000860FFE7FFE758
:10276000FFE7FFE70498C068E0B1FFE7FFF7CEF8A6
:102770000390FFE741F22000C4F2020000688007E6
:1027800000280ED4FFE7FFF7C1F80399401A41F281
:102790008931884204D3FFE703208DF81700E8E071
:1027A000E8E71BE0FFF7B2F80390FFE741F22000F3
:1027B000C4F202000068800700280ED5FFE7FFF78B
:1027C000A5F80399401A41F28931884204D3FFE702
:1027D00003208DF81700CCE0E8E7FFE79DF807003D
:1027E000012809D1FFE741F21C01C4F20201086887
:1027F00020F080500860FFE7FFE70498C0690028D8
:1028000000F0B380FFE741F20400C4F20200006868
:1028100000F00C00082800F08280FFE70498C069EF
:1028200002285CD1FFE76021C4F242210020086049
:10283000FFF76CF80390FFE741F20000C4F20200DA
:102840000068800100280CD5FFE7FFF75FF80399C7
:10285000401A032804D3FFE703208DF8170088E00F
:10286000EAE70498006AB0F5803F0CD1FFE741F237
:102870000401C4F20201086820F40030049A92684E
:1028800010430860FFE741F20401C4F20201086846
:1028900020F47410049B1A6A5B6A1A4310430860A0
:1028A0006021C4F2422101200860FFF72FF8039055
:1028B000FFE741F20000C4F2020000688001002836
:1028C0000CD4FFE7FFF722F80399401A032804D33A
:1028D000FFE703208DF817004BE0EAE71EE06021D8
:1028E000C4F2422100200860FFF710F80390FFE7D0
:1028F00041F20000C4F202000068800100280CD5FB
:10290000FFE7FFF703F80399401A032804D3FFE712
:1029100003208DF817002CE0EAE7FFE724E0049895
:10292000C069012804D1FFE701208DF8170020E0DD
:1029300041F20400C4F2020000680290029800F420
:1029400080300499096A884208D1FFE7029800F4B0
:1029500070100499496A884204D0FFE701208DF87D
:10296000170006E0FFE7FFE7FFE700208DF81700FC
:10297000FFE79DF8170006B080BD000080B584B069
:102980000290029820B9FFE701208DF80F006DE05A
:102990000298406A60B9FFE702984068B0F5827F0C
:1029A00001D1FFE703E002990020C861FFE705E0DD
:1029B00002990020086102994861FFE7029900200E
:1029C0008862029890F8510040B9FFE70299002010
:1029D00081F85000029800F04DF8FFE702990220BC
:1029E00081F8510002980168086820F040000860F2
:1029F000029A019211685068D2F808C0D36800F4B6
:102A000082700CF4044C604403F4006318441369AE
:102A100003F002031844536903F001031844936957
:102A200003F400731844D36903F038031844136A9D
:102A300003F080031843926A02F4005210430860C6
:102A40000299488B00F00400096848600298016808
:102A5000C86920F40060C861029900204865029AA4
:102A6000012182F851108DF80F00FFE79DF80F004B
:102A700004B080BD80B58EB00D9000200C900B90FE
:102A80000A9009900D98006843F20001C4F2010118
:102A9000884237D1FFE7FFE741F21800C4F2020095
:102AA000016841F480510160006800F48050089092
:102AB0000898FFE7FFE741F21800C4F2020001683E
:102AC00041F004010160006800F0040007900798DD
:102AD000FFE7A020099002200A9003200C9040F606
:102AE0000000C4F20100039009A90491FEF766FDFD
:102AF000039804994022099200220A920B92FEF751
:102B00005DFD42E00D98006843F60001C4F200014B
:102B1000884239D1FFE7FFE741F21C00C4F202000E
:102B2000016841F480410160006800F48040069033
:102B30000698FFE7FFE741F21800C4F202000168BF
:102B400041F008010160006800F008000590059858
:102B5000FFE74FF42040099002200A9003200C90D8
:102B600040F60040C4F20100019009A90291FEF76D
:102B700025FD019802994FF48042099200220A92A1
:102B80000B92FEF71BFDFFE7FFE70EB080BD0000D4
:102B900080B588B006900591ADF81220039300200F
:102BA0008DF80700069890F85100012804D0FFE73F
:102BB00002208DF80700FDE006984068B0F5827F9E
:102BC00016D1FFE70698806890B9FFE706990420C0
:102BD00081F851000698059ABDF812300399EC4629
:102BE000CCF80010114600F041FA8DF81F00ECE01F
:102BF000FFE7069890F85000012804D1FFE7022073
:102C00008DF81F00E1E00699012081F85000FFE7F0
:102C1000FFE7FEF77BFE0290059820B1FFE7BDF8C5
:102C2000120020B9FFE701208DF80700C2E00699E5
:102C3000042081F851000699002048650599069AFC
:102C40009163BDF81210069A9187BDF81210069A8A
:102C5000D18706990863069988860699C8860699D9
:102C600008640699486406988068B0F5004F0DD155
:102C7000FFE706980168086820F0400008600698A1
:102C80000168086820F480400860FFE70698006843
:102C9000006800F04000402807D0FFE70698016870
:102CA000086840F040000860FFE70698C068A0BBD5
:102CB000FFE7FFE70698C08F70B3FFE7069800684C
:102CC0008068C00778B1FFE706980068007B069926
:102CD000896B08700699886B013088630699C88FE4
:102CE0000138C88717E0FEF711FE0299401A0399D0
:102CF000884204D3FFE70398013018B9FFE703982F
:102D000040B9FFE703208DF807000699012081F8FC
:102D100051004FE0FFE7CDE733E0FFE70698C08FB3
:102D200070B3FFE7069800688068C00778B1FFE7D6
:102D300006980068C0680699896B08800699886BB8
:102D4000023088630699C88F0138C88717E0FEF7FC
:102D5000DDFD0299401A0399884204D3FFE70398E6
:102D6000013018B9FFE7039840B9FFE703208DF859
:102D700007000699012081F851001BE0FFE7CDE72D
:102D8000FFE706980399029A01F0EEFF20B1FFE7F2
:102D9000069920204865FFE70698406D20B1FFE7BF
:102DA00001208DF8070004E00699012081F8510008
:102DB000FFE7FFE7FFE70699002081F85000FFE7F3
:102DC0009DF807008DF81F00FFE79DF81F0008B071
:102DD00080BD000080B588B006900591ADF8122046
:102DE000039300208DF80700FFE7069890F8500045
:102DF000012804D1FFE702208DF81F0031E1069978
:102E0000012081F85000FFE7FFE7FEF77FFD029009
:102E1000BDF81200ADF80400069890F851000128A2
:102E200004D0FFE702208DF807000FE1059820B1DC
:102E3000FFE7BDF8120020B9FFE701208DF8070079
:102E400004E10699032081F85100069900204865A5
:102E50000599069A1163BDF81210069A9186BDF87D
:102E60001210069AD1860699886306998887069972
:102E7000C887069948640699086406988068B0F582
:102E8000004F0DD1FFE706980168086820F0400068
:102E9000086006980168086840F480400860FFE711
:102EA00006980068006800F04000402807D0FFE75F
:102EB00006980168086840F040000860FFE706983F
:102EC000C068B0F5006F4BD1FFE70698406828B1A5
:102ED000FFE7BDF8040001280ED1FFE7069801685E
:102EE000006B0088C8600699086B02300863069979
:102EF000C88E0138C886FFE7FFE70698C08E70B31A
:102F0000FFE7069800688068800700280ED5FFE775
:102F100006980168006B0088C8600699086B02304B
:102F200008630699C88E0138C88617E0FEF7EEFCE4
:102F30000299401A0399884204D3FFE703980130AD
:102F400018B9FFE7039840B9FFE703208DF80700A1
:102F50000699012081F8510078E0FFE7CDE74AE0CB
:102F60000698406828B1FFE7BDF8040001280ED19B
:102F7000FFE706980168006B007808730699086BF4
:102F8000013008630699C88E0138C886FFE7FFE75D
:102F90000698C08E70B3FFE70698006880688007C7
:102FA00000280ED5FFE706980168006B00780873CB
:102FB0000699086B013008630699C88E0138C886E7
:102FC00017E0FEF7A3FC0299401A0399884204D344
:102FD000FFE70398013018B9FFE7039840B9FFE70E
:102FE00003208DF807000699012081F851002DE09B
:102FF000FFE7CDE7FFE706980399029A01F010FF7B
:1030000020B1FFE7069920204865FFE70698806811
:1030100070B9FFE7FFE70020009006980068C068DD
:10302000009006980068806800900098FFE7FFE72E
:103030000698406D20B1FFE701208DF8070004E0FD
:103040000699012081F85100FFE7FFE7FFE70699A5
:10305000002081F85000FFE79DF807008DF81F0061
:10306000FFE79DF81F0008B080BD000080B58EB05E
:10307000DDF840C00C900B910A92ADF8263001208B
:10308000059000208DF81300FFE70C9890F8500091
:10309000012804D1FFE702208DF83700A6E10C9942
:1030A000012081F85000FFE7FFE7FEF72FFC0690B4
:1030B0000C9890F851008DF81F000C98406808900B
:1030C000BDF82600ADF824009DF81F00012812D09D
:1030D000FFE70898B0F5827F09D1FFE70C98806878
:1030E00028B9FFE79DF81F00042804D0FFE702205D
:1030F0008DF813006FE10B9838B1FFE70A9820B103
:10310000FFE7BDF8260020B9FFE701208DF8130086
:1031100061E10C9890F85100042805D0FFE70C9964
:10312000052081F85100FFE70C99002048650A99B5
:103130000C9A9163BDF826100C9AD187BDF8261021
:103140000C9A91870B990C9A1163BDF826100C9A72
:10315000D186BDF826100C9A91860C9908640C99BA
:1031600048640C980068006800F04000402807D0D0
:10317000FFE70C980168086840F040000860FFE72E
:103180000C98C068B0F5006F7AD1FFE70C984068E2
:1031900028B1FFE7BDF8240001280ED1FFE70C9805
:1031A0000168006B0088C8600C99086B02300863E6
:1031B0000C99C88E0138C886FFE7FFE70C98C18ECE
:1031C0000120029039B9FFE70C98C08F002818BF82
:1031D00001200290FFE70298C00700284FD0FFE7C8
:1031E0000C98006880688007002818D5FFE70C98C5
:1031F000C08EA0B1FFE70598012810D1FFE70C9819
:103200000168006B0088C8600C99086B0230086385
:103210000C99C88E0138C88600200590FFE70C98ED
:1032200000688068C007A8B1FFE70C98C08F88B11C
:10323000FFE70C980068C0680C99896B08800C99AE
:10324000886B023088630C99C88F0138C8870120C9
:103250000590FFE7FEF75AFB0699401A109988423D
:103260000CD3FFE71098013040B1FFE703208DF841
:1032700013000C99012081F85100ACE09EE77CE03E
:103280000C98406828B1FFE7BDF8240001280ED152
:10329000FFE70C980168006B007808730C99086BC5
:1032A000013008630C99C88E0138C886FFE7FFE734
:1032B0000C98C18E0120019039B9FFE70C98C08F9E
:1032C000002818BF01200190FFE70198C0070028DF
:1032D00052D0FFE70C98006880688007002818D556
:1032E000FFE70C98C08EA0B1FFE70598012810D128
:1032F000FFE70C980168006B007808730C99086B65
:10330000013008630C99C88E0138C88600200590EA
:10331000FFE70C9800688068C007A8B1FFE70C9829
:10332000C08F88B1FFE70C980068C0680C99896B62
:1033300008700C99886B013088630C99C88F01382C
:10334000C88701200590FFE7FEF7E0FA0699401ACA
:103350001099884204D3FFE71098013018B9FFE7AD
:10336000109840B9FFE703208DF813000C99012055
:1033700081F851002FE09BE7FFE70C981099069A1F
:1033800001F04EFD38B1FFE701208DF813000C99D4
:10339000202048651FE00C98806870B9FFE7FFE7C0
:1033A000002003900C980068C06803900C98006897
:1033B000806803900398FFE7FFE70C98406D20B109
:1033C000FFE701208DF8130004E00C99012081F83B
:1033D0005100FFE7FFE7FFE70C99002081F850005C
:1033E000FFE79DF813008DF83700FFE79DF83700E1
:1033F0000EB080BD80B582B00190019801F0CAFD89
:1034000002B080BD81B0009001B0704781B00090E3
:1034100001B0704785B003900291FFE7039890F8E0
:103420003C00012804D1FFE702208DF813005BE087
:103430000399012081F83C00FFE7FFE70399022090
:1034400081F83D0003980068406801900398006887
:1034500080680090019820F0700001900298016847
:1034600001980843019001980399096848600398FE
:10347000006842F60041C4F20101884218D0FFE71B
:1034800003980068B0F1804F12D0FFE703980068FE
:1034900040F20041C4F20001884209D0FFE70398DE
:1034A000006840F60001C4F2000188420ED1FFE737
:1034B000009820F08000009002984168009808432E
:1034C00000900098039909688860FFE7039901203C
:1034D00081F83D00FFE70399002081F83C00FFE7F9
:1034E00000208DF81300FFE79DF8130005B070472A
:1034F00080B582B00090009820B9FFE701208DF8D8
:1035000007003FE0009890F83D0040B9FFE70099C0
:10351000002081F83C00009800F038F8FFE700999F
:10352000022081F83D00009951F8040B01F0A0FD44
:103530000099012081F84600FFE70099012081F8F9
:103540003E00009981F83F00009981F84000009901
:1035500081F84100FFE7FFE70099012081F8420070
:10356000009981F84300009981F84400009981F89E
:103570004500FFE70099012081F83D0000208DF80B
:103580000700FFE79DF8070002B080BD80B584B05A
:10359000039003980068B0F1804F19D1FFE7FFE76F
:1035A00041F21C00C4F20200016841F00101016017
:1035B000006800F0010002900298FFE71C200190D3
:1035C0000F210022FEF7D8FC0198FEF7CBFCFFE7A5
:1035D00004B080BD83B00190019890F83D000128AF
:1035E00004D0FFE701208DF80B0047E0019902208D
:1035F00081F83D0001980168C86840F00100C8608A
:103600000198006842F60041C4F20101884218D0D6
:10361000FFE701980068B0F1804F12D0FFE70198F2
:10362000006840F20041C4F20001884209D0FFE77F
:103630000198006840F60001C4F20001884212D1EE
:10364000FFE701980068806800F00700009000988C
:10365000062807D0FFE701980168086840F00100DC
:103660000860FFE706E001980168086840F0010083
:103670000860FFE700208DF80B00FFE79DF80B00C6
:1036800003B0704780B586B00490039100208DF898
:103690000B00FFE7049890F83C00012804D1FFE7F5
:1036A00002208DF81700ABE00499012081F83C005E
:1036B000FFE7FFE70499022081F83D0004980068C5
:1036C00080680190019820F077000190019820F423
:1036D0007F40019001980499096888600398006808
:1036E0000090002872D0FFE7009810286ED0FFE706
:1036F000009820286AD0FFE70098302866D0FFE7BE
:103700000098402855D0FFE70098502837D0FFE7B1
:103710000098602840D0FFE7009870280BD0FFE7A2
:103720000098B0F5805F05D0FFE70098B0F5005F26
:1037300016D052E055E004980068039B5A689968D7
:10374000DB6801F029FD0498006880680190019809
:1037500040F077000190019804990968886040E082
:1037600004980068039B5A689968DB6801F014FDAF
:1037700004980168886840F48040886031E00498CB
:103780000068039A5168D26801F0C2FE049800688C
:10379000502101F01BFD24E004980068039A516851
:1037A000D26801F0DDFE04980068602101F00EFD92
:1037B00017E004980068039A5168D26801F0A8FEE7
:1037C00004980068402101F001FD0AE004980068B7
:1037D0000399096801F0FAFC03E001208DF80B0061
:1037E000FFE70499012081F83D00FFE704990020DC
:1037F00081F83C00FFE79DF80B008DF81700FFE70C
:103800009DF8170006B080BD81B0009001B07047F0
:1038100080B582B0019001980068006900F0020153
:103820000020B0EB510F28D0FFE701980068C06876
:1038300000F002010020B0EB510F1DD0FFE701980E
:1038400001686FF002000861019901200877019872
:1038500000688069800720B1FFE70198FFF7D4FF77
:1038600006E0019800F042F9019800F051FAFFE7F4
:10387000019900200877FFE7FFE7019800680069D9
:1038800000F004010020B0EB910F29D0FFE7019870
:103890000068C06800F004010020B0EB910F1ED05A
:1038A000FFE7019801686FF00400086101990220A8
:1038B000087701980068806910F4407F04D0FFE722
:1038C0000198FFF7A1FF06E0019800F00FF90198B9
:1038D00000F01EFAFFE7019900200877FFE7FFE7F5
:1038E00001980068006900F008010020B0EBD10FDA
:1038F00028D0FFE701980068C06800F008010020A8
:10390000B0EBD10F1DD0FFE7019801686FF0080000
:10391000086101990420087701980068C069800750
:1039200020B1FFE70198FFF76FFF06E0019800F074
:10393000DDF8019800F0ECF9FFE701990020087725
:10394000FFE7FFE701980068006900F01001002020
:10395000B0EB111F29D0FFE701980068C06800F0A4
:1039600010010020B0EB111F1ED0FFE70198016885
:103970006FF010000861019908200877019800682D
:10398000C06910F4407F04D0FFE70198FFF73CFFC7
:1039900006E0019800F0AAF8019800F0B9F9FFE7F5
:1039A000019900200877FFE7FFE7019800680069A8
:1039B000C00780B1FFE701980068C068C00748B140
:1039C000FFE7019801686FF001000861019800F0BD
:1039D00053FAFFE7FFE7019800680069C1B20020D1
:1039E000B0EBD11F13D0FFE701980068C068C1B2E7
:1039F0000020B0EBD11F09D0FFE7019801686FF0FC
:103A0000800008610198FFF7FDFCFFE7FFE70198E0
:103A10000068006900F040010020B0EB911F14D055
:103A2000FFE701980068C06800F040010020B0EB9B
:103A3000911F09D0FFE7019801686FF0400008610D
:103A4000019800F02FFAFFE7FFE70198006800698E
:103A500000F020010020B0EB511F14D0FFE70198C7
:103A60000068C06800F020010020B0EB511F09D0B1
:103A7000FFE7019801686FF0200008610198FFF7E7
:103A8000C5FCFFE7FFE702B080BD000080B586B04F
:103A90000590002004900390029001900598006822
:103AA00040F60001C4F2000188421CD1FFE7FFE7A5
:103AB00041F21800C4F20200016841F008010160FF
:103AC000006800F0080000900098FFE74020019097
:103AD00002200290049040F60040C4F2010001A9C7
:103AE000FDF76CFDFFE706B080BD000081B00090DF
:103AF00001B0704780B586B0049003910292002017
:103B00008DF80700FFE7049890F83C00012804D1E5
:103B1000FFE702208DF8170089E00499012081F861
:103B20003C00FFE7FFE7029800900C2800F270804D
:103B30000099DFE801F0076D6D6D206D6D6D3A6DD8
:103B40006D6D530004980068039901F055FB0498CB
:103B50000168886940F008008861049801688869F4
:103B600020F004008861039802690498016888695C
:103B70001043886150E004980068039901F0A4FBA9
:103B800004980168886940F40060886104980168BD
:103B9000886920F48060886103980269049801684C
:103BA000886940EA0220886136E004980068039939
:103BB00001F0F6FB04980168C86940F00800C8618C
:103BC00004980168C86920F00400C861039802697C
:103BD00004980168C8691043C8611DE00498006832
:103BE000039901F049FC04980168C86940F4006039
:103BF000C86104980168C86920F48060C8610398AE
:103C0000026904980168C86940EA0220C86103E0BB
:103C100001208DF80700FFE7FFE70499002081F8F5
:103C20003C00FFE79DF807008DF81700FFE79DF8BF
:103C3000170006B080BD000080B582B000900098EB
:103C400020B9FFE701208DF807003FE0009890F8C9
:103C50003D0040B9FFE70099002081F83C00009842
:103C600000F038F8FFE70099022081F83D00009944
:103C700051F8040B01F0FCF90099012081F846008D
:103C8000FFE70099012081F83E00009981F83F008C
:103C9000009981F84000009981F84100FFE7FFE7B3
:103CA0000099012081F84200009981F843000099B1
:103CB00081F84400009981F84500FFE70099012050
:103CC00081F83D0000208DF80700FFE79DF8070010
:103CD00002B080BD82B001900198006840F60001FA
:103CE000C4F20001884210D1FFE7FFE741F21C0057
:103CF000C4F20200016841F004010160006800F0B4
:103D0000040000900098FFE7FFE702B07047000052
:103D100081B0009001B0704780B58AB008900791DB
:103D2000079828B9FFE7089890F83E0005901CE036
:103D30000798042805D1FFE7089890F83F00049001
:103D400010E00798082805D1FFE7089890F8400090
:103D5000039004E0089890F841000390FFE703986F
:103D60000490FFE704980590FFE70598012804D028
:103D7000FFE701208DF827007AE0079828B9FFE7D0
:103D80000899022081F83E001EE00798042806D119
:103D9000FFE70899022081F83F00029012E007989F
:103DA000082806D1FFE70899022081F84000019019
:103DB00005E00899022081F841000190FFE7019891
:103DC0000290FFE70298FFE7089800680799012230
:103DD00001F0C6F90898006842F60041C4F20101FA
:103DE000884207D1FFE708980168486C40F400401A
:103DF0004864FFE70898006842F60041C4F20101F8
:103E0000884218D0FFE708980068B0F1804F12D0C0
:103E1000FFE70898006840F20041C4F200018842C0
:103E200009D0FFE70898006840F60001C4F20001DD
:103E3000884212D1FFE708980068806800F0070008
:103E400006900698062807D0FFE7089801680868DA
:103E500040F001000860FFE706E008980168086884
:103E600040F001000860FFE700208DF82700FFE721
:103E70009DF827000AB080BD81B0009000980068CE
:103E8000B0F1804F0BD1FFE7FFE740F24C71C2F277
:103E90000001087840F001000870FFE7FFE701B07B
:103EA0007047000081B0009001B07047FFE7FEE767
:103EB00082B0009000980068406900F480610120A1
:103EC000B0EB912F1ED1FFE7009801686FF480607E
:103ED0004861009900200863009A202182F83D1073
:103EE000009981F83E000099086C40F004000864D5
:103EF000FFE70099002081F83C00FFE701208DF8E2
:103F0000070003E000208DF80700FFE79DF8070099
:103F100002B0704780B586B0DDF824C0DDF820C05F
:103F20000490ADF80E10ADF80C20ADF80A300498EE
:103F30000168086840F4807008600498089B09993B
:103F40006A4611604FF00111002200F0D7F880B1ED
:103F5000FFE7049800680068C005002805D5FFE762
:103F600004994FF400700864FFE703208DF81700F0
:103F700069E0BDF80E0000F0FE00049909680861D0
:103F80000498089A099B0221C0F2010100F03AF955
:103F900020B1FFE701208DF8170054E0FFE7002073
:103FA0000190049800684069019004980068806955
:103FB00001900198FFE704980899099A00F0CCF95C
:103FC00080B1FFE70498006C042807D1FFE704984C
:103FD0000168086840F400700860FFE701208DF870
:103FE000170030E0BDF80A00012806D1FFE79DF870
:103FF0000C0004990968086121E09DF80D000499FE
:104000000968086104980899099A00F0A5F980B137
:10401000FFE70498006C042807D1FFE704980168C3
:10402000086840F400700860FFE701208DF8170071
:1040300009E09DF80C00049909680861FFE7002079
:104040008DF81700FFE79DF8170006B080BD00004F
:1040500080B584B0029001910092FFE70298006859
:10406000406900F004010020B0EB910F3ED1FFE762
:104070000298FFF71DFF20B1FFE701208DF80F0028
:1040800038E00198013080B3FFE7FDF73FFC00996D
:10409000401A0199884203D8FFE7019820BBFFE747
:1040A00002980068406900F004010020B0EB910F15
:1040B00019D1FFE7029900200863029A202182F8B3
:1040C0003D10029981F83E000299086C40F02000F2
:1040D0000864FFE70299002081F83C00FFE7012017
:1040E0008DF80F0006E0FFE7FFE7B7E700208DF847
:1040F0000F00FFE79DF80F0004B080BD80B588B0C9
:10410000DDF828C0069005918DF813200393FFE792
:104110009DF8160001280CD1FFE706980068406959
:10412000BDF814100840401AB0FA80F0400902901F
:104130000BE0069800688069BDF814100840401A2A
:10414000B0FA80F040090290FFE702989DF8131042
:1041500088424FD1FFE703980130002849D0FFE79C
:10416000FDF7D4FB0A99401A0399884203D8FFE768
:104170000398E8BBFFE79DF8160001280CD1FFE784
:10418000069800684069BDF814100840401AB0FA5B
:1041900080F0400901900BE0069800688069BDF846
:1041A00014100840401AB0FA80F040090190FFE76F
:1041B00001989DF81310884219D1FFE70699002055
:1041C0000863069A202182F83D10069981F83E0086
:1041D0000699086C40F020000864FFE7069900206B
:1041E00081F83C00FFE701208DF81F0006E0FFE7A3
:1041F000FFE78DE700208DF81F00FFE79DF81F0007
:1042000008B080BD80B588B00690059104920393F4
:10421000FFE79DF8160001280CD1FFE7069800681B
:104220004069BDF814100840401AB0FA80F0400907
:1042300002900BE0069800688069BDF814100840F1
:10424000401AB0FA80F040090290FFE70298002877
:104250007AD1FFE706980068406900F48061012088
:10426000B0EB912F24D1FFE706980168086840F46D
:1042700000700860069801686FF4806048610699D4
:1042800000200863069A202182F83D10069981F8E3
:104290003E000699086C40F004000864FFE70699A8
:1042A000002081F83C00FFE701208DF81F004FE05F
:1042B00004980130002846D0FFE7FDF727FB03995B
:1042C000401A0499884203D8FFE70498D0BBFFE75F
:1042D0009DF8160001280CD1FFE706980068406998
:1042E000BDF814100840401AB0FA80F0400901905F
:1042F0000BE0069800688069BDF814100840401A69
:10430000B0FA80F040090190FFE70198C8B9FFE7D3
:10431000069900200863069A202182F83D1006992C
:1043200081F83E000699086C40F020000864FFE721
:104330000699002081F83C00FFE701208DF81F005E
:1043400006E0FFE7FFE764E700208DF81F00FFE7C6
:104350009DF81F0008B080BD80B584B00290019127
:104360000092FFE7029800684069C1B20020B0EBFC
:10437000D11F3DD1FFE70298FFF79AFD20B1FFE77B
:1043800001208DF80F0037E00198013078B3FFE786
:10439000FDF7BCFA0099401A0199884203D8FFE75B
:1043A000019818BBFFE7029800684069C1B200207D
:1043B000B0EBD11F19D1FFE7029900200863029AE0
:1043C000202182F83D10029981F83E000299086C84
:1043D00040F020000864FFE70299002081F83C00CB
:1043E000FFE701208DF80F0006E0FFE7FFE7B9E7E0
:1043F00000208DF80F00FFE79DF80F0004B080BD8E
:1044000080B588B0079040F60000C4F20100029029
:104410004FF40061039100220592FDF75FFA01203D
:104420000490FDF7A9F802980399049AFDF756FA4B
:104430000498FDF7A1F805988DF81B00FFE79DF89B
:104440001B00032839DCFFE707989DF81B100023A9
:1044500001931A4600F034F807989DF81B10A92222
:10446000FF2300F02DF801200090FDF785F8009B58
:10447000019A07989DF81B1000F022F80098FDF7AC
:104480007BF8009A07989DF81B105A2300F018F843
:10449000019B07989DF81B10022200F011F8079865
:1044A0009DF81B100422512300F00AF8FFE79DF845
:1044B0001B0001308DF81B00C1E7002008B080BD53
:1044C00080B586B005908DF81310ADF810208DF8EA
:1044D0000F309DF8130000F0010240F60000C4F216
:1044E000010002904FF40071FDF7F8F902989DF871
:1044F0001310C1F340024FF48071FDF7EFF90298F9
:104500004FF4806101910022FDF7E8F90598BDF8AC
:1045100010109DF80F2000F04BF801990246029808
:104520008DF80E200122FDF7D9F99DF80E0006B096
:1045300080BD000080B586B084460898CDF814C0D0
:104540008DF81310ADF810200393ADF80A009DF814
:10455000130000F0010240F60000C4F201000190D7
:104560004FF40071FDF7BAF901989DF81310C1F3EB
:1045700040024FF48071FDF7B1F901984FF480616A
:1045800000910022FDF7AAF90598BDF81010039AD2
:10459000BDF80A3000F034F80099024601988DF811
:1045A00009200122FDF79AF99DF8090006B080BDA7
:1045B00080B584B00390ADF80A108DF80920BDF8DD
:1045C0000A008001ADF80A00BDF80A0040F02000A2
:1045D000ADF80A009DF80B008DF80600BDF80A0042
:1045E0008DF807009DF809008DF8080003980DF17B
:1045F000060103226423FEF7EDFB04B080BD00003A
:1046000080B588B00790ADF81A100592ADF8123059
:10461000BDF81A008001ADF81A00BDF81A0040F08C
:104620002000ADF81A009DF81B008DF80F00BDF8B2
:104630001A008DF810000DF10F01881C0331019153
:104640000290FFE70299019A002001F8010B084649
:1046500091420290F6D1FFE707980DF10F01022277
:1046600064230093FEF7B6FB009B07980599BDF8FD
:104670001220FEF7AFFB08B080BD000080B58AB005
:1046800000200990089007900690FFE741F218007B
:10469000C4F20200016841F020010160006800F0EE
:1046A000200005900598FFE7FFE741F21800C4F2EB
:1046B0000200016841F004010160006800F004009C
:1046C00004900498FFE7FFE741F21800C4F20200EB
:1046D000016841F008010160006800F008000390E3
:1046E0000398FFE740F60000C4F2010002904FF487
:1046F000316100220192FDF7F1F802984FF48061D8
:1047000001220092FDF7EAF8009A019902984FF40D
:1047100071630693079208910221099106A9FCF79B
:104720004DFF0AB080BD000080B582B040F2B050AD
:10473000C2F20000019045F60001C4F200010160E0
:1047400048F2A061C0F20101416000218160C160B6
:104750004FF48042026141618161C1610162FDF7F4
:10476000DBF818B1FFE7FCF7FFFEFFE702B080BD02
:1047700080B582B040F20460C2F20000019043F2C2
:104780000001C4F2010101604FF482714160002117
:104790008160C160016141614FF400728261102249
:1047A000C2610162416281620A21C162FEF7E6F8DC
:1047B00018B1FFE7FCF7D8FEFFE702B080BD0000AC
:1047C00080B582B040F25C60C2F20000019043F616
:1047D0000001C4F2000101604FF4827141600021C8
:1047E0008160C160016141614FF4007282612022E9
:1047F000C2610162416281620A21C162FEF7BEF8B4
:1048000018B1FFE7FCF7B0FEFFE702B080BD000083
:1048100080B586B000210591049103910291019128
:10482000009140F2B460C2F200004FF0804202609A
:104830004FF47A7242601022826040F65F12C260CA
:10484000016180218161FEF753FE18B1FFE7FCF79B
:104850008BFEFFE74FF48050029040F2B460C2F24A
:10486000000002A9FEF70EFF18B1FFE7FCF77CFE7F
:10487000FFE700200090019040F2B460C2F2000017
:104880006946FEF7C7FD18B1FFE7FCF76DFEFFE7CD
:1048900006B080BD80B58AB00021009109910891D1
:1048A000079106910591049103910291019140F2C3
:1048B000FC60C2F2000040F60002C4F20002026096
:1048C000472242608160F922C260016180218161DA
:1048D000FFF7B2F918B1FFE7FCF746FEFFE700204B
:1048E0000890099040F2FC60C2F2000008A9FEF7AF
:1048F00091FD18B1FFE7FCF737FEFFE7602001905C
:104900000022029202200390059240F2FC60C2F263
:10491000000001A9FFF7EEF818B1FFE7FCF724FE4D
:10492000FFE740F2FC60C2F20000FFF7AFF80AB008
:1049300080BD0000FFE7FEE7FFE7FEE788B00790D5
:1049400006910592079800F0070004900498C0F1C2
:104950000700052803D3FFE70420019004E0049832
:10496000C0F107000190FFE701980390049804301C
:10497000062803D8FFE70020009003E004980338DE
:104980000090FFE70098029006980399012202FA2E
:1049900001F101390840029B984005999A40013A7B
:1049A0001140084308B0704780B582B0AE208DF842
:1049B000060041F28D00ADF8040001A8032100F0CB
:1049C00083F9014640F24470C2F2000001700078A1
:1049D00002B080BD80B582B0AF208DF8060041F2F4
:1049E0008D40ADF8040001A8032100F06DF902B07C
:1049F00080BD000080B584B0029000208DF80700D3
:104A0000FFE79DF80700032832DCFFE79DF8070069
:104A1000002100F03BF940F24471C2F2000108703D
:104A200040B1FFE740F24470C2F2000000788DF818
:104A30000F0021E002989DF8071000EBC1108021C3
:104A400000F05AF940F24471C2F20001087040B11E
:104A5000FFE740F24470C2F2000000788DF80F00CA
:104A60000AE0FFE79DF8070001308DF80700C8E76E
:104A700000208DF80F00FFE79DF80F0004B080BD07
:104A800080B5ADF50A7D0AA802904FF40071FBF7DE
:104A900082FC40F60040C4F2010020210022049272
:104AA000FCF71CFFFFF780FF0A200390FCF764FD72
:104AB00046F27411C0F6000105A80190142200927C
:104AC000FBF724FC0099019800F0FEF80398FCF72E
:104AD00053FD0298FFF78EFF0398FCF74DFDFFF79B
:104AE00079FF04980DF50A7D80BD000080B582B085
:104AF0008DF807008DF806108DF805209DF805004B
:104B0000202805DBFFE79DF805007B2804DBFFE795
:104B100000208DF805001DE09DF80500402806DC0A
:104B2000FFE79DF8050020388DF8050011E09DF89D
:104B30000500602806DCFFE79DF8050020388DF8A9
:104B4000050005E09DF8050020388DF80500FFE719
:104B5000FFE7FFE79DF807009DF806109DF8052088
:104B600000F002F802B080BD80B582B08DF806007A
:104B70008DF805108DF804209DF806009DF80510AD
:104B800000F084F840F24471C2F20001087040B1B4
:104B9000FFE740F24470C2F2000000788DF8070091
:104BA0001FE09DF8040000EB400140F20000C2F25B
:104BB000000000EB4100062100F09EF840F2447135
:104BC000C2F20001087040B1FFE740F24470C2F247
:104BD000000000788DF8070003E000208DF8070042
:104BE000FFE79DF8070002B080BD000080B584B0EB
:104BF0008DF80E008DF80D1002928DF80730002010
:104C00008DF80600FFE79DF806009DF80710884222
:104C100033DAFFE79DF80D007B2809DBFFE7002072
:104C20008DF80D009DF80E0001308DF80E00FFE7A5
:104C30009DF80E009DF80D10029A9DF80630D25C8A
:104C4000FFF754FF40F24471C2F20001087040B116
:104C5000FFE740F24470C2F2000000788DF80F00C8
:104C60000FE0FFE79DF8060001308DF806009DF883
:104C70000D0006308DF80D00C5E700208DF80F00FF
:104C8000FFE79DF80F0004B080BD000080B582B042
:104C90008DF807008DF806109DF8060000F00F0053
:104CA0008DF803009DF80600000910308DF804000F
:104CB0009DF80700B0308DF805000DF103000321C9
:104CC00000F002F802B080BD80B586B00590ADF866
:104CD00012100598BDF81220694664238B604A6063
:104CE000086040F2B050C2F2000078210022012397
:104CF000FCF764FF06B080BD80B586B00590ADF8C6
:104D000012100598BDF81220694664238B604A6032
:104D1000086040F2B050C2F2000078214022012326
:104D2000FCF74CFF06B080BD7047000082B00190D8
:104D3000019840F22821C2F200010968C90844F62E
:104D4000D352C1F26202A1FB0221890948430090BB
:104D5000FFE700BFFFE70098411E00910028F8D14F
:104D6000FFE702B07047000080B586B00490039161
:104D7000029204984068B0F5827F13D1FFE704984F
:104D80008068B0F5004F06D0FFE704988068B0F562
:104D9000806F07D1FFE704980168086820F04000A1
:104DA0000860FFE704984068B0F5827F1BD1FFE7F9
:104DB00004988068B0F5806F15D1FFE70498039BD5
:104DC00002996A4611600121002200F04BF848B1B7
:104DD000FFE70499486D40F02000486503208DF8F6
:104DE000170019E014E00498039B02996A461160C9
:104DF0008021002200F036F848B1FFE70499486DA1
:104E000040F02000486503208DF8170004E0FFE71C
:104E100000208DF81700FFE79DF8170006B080BD51
:104E200080B586B00490039102920498039B029986
:104E30006A4611608021002200F014F848B1FFE7B3
:104E40000499486D40F02000486503208DF8170054
:104E500003E000208DF81700FFE79DF8170006B06B
:104E600080BD000080B58AB0DDF830C008900791A1
:104E70008DF81B20059305980190FCF747FD02462D
:104E800001980C99891A08440390FCF73FFD0290A1
:104E9000039840F22821C2F200010968C1F3CB3126
:104EA00048430490FFE70898006880680799084025
:104EB000401AB0FA80F040099DF81B1088425ED07D
:104EC000FFE705980130002858D0FFE7FCF71EFDEA
:104ED0000299401A0399884204D2FFE703980028F8
:104EE00042D1FFE708980168486820F0E000486078
:104EF00008984068B0F5827F13D1FFE70898806872
:104F0000B0F5004F06D0FFE708988068B0F5806FD5
:104F100007D1FFE708980168086820F040000860A2
:104F2000FFE70898806AB0F5005F0FD1FFE7FFE761
:104F300008980168086820F4005008600898016823
:104F4000086840F400500860FFE7FFE70899012077
:104F500081F85100FFE70899002081F85000FFE731
:104F600003208DF827000EE0049818B9FFE7002011
:104F70000390FFE7049801380490FFE793E70020CF
:104F80008DF82700FFE79DF827000AB080BD0000DC
:104F90007047000080B582B0009000980138B0F1F1
:104FA000807F03D3FFE70120019019E000980138CA
:104FB0004EF21401CEF2000108604FF0FF300F21D5
:104FC00000F054FB4EF21801CEF200010020086000
:104FD0004EF21002CEF20002072111600190FFE7AD
:104FE000019802B080BD000080B5FCF72FFF80BDA6
:104FF00080B590B006A800902821FBF7EEF9009844
:1050000000230593049303930293019301220692D4
:105010004FF48031079108930A9202220D920E916B
:105020004FF4E0110F91FDF76BF918B1FFE7FCF7B2
:105030009BFAFFE70F2001900221029100200390CC
:105040004FF480620492059001A8FCF7B7FF18B1F5
:10505000FFE7FCF789FAFFE710B080BD704700005A
:1050600080B540F2B460C2F20000FEF7D1FB80BD13
:1050700083B002900191029800680090029842F675
:105080000041C4F20101884215D0FFE70298B0F157
:10509000804F10D0FFE7029840F20041C4F20001B7
:1050A000884208D0FFE7029840F60001C4F20001F0
:1050B00088420AD1FFE7009820F070000090019824
:1050C0004168009808430090FFE7029842F60041CB
:1050D000C4F20101884215D0FFE70298B0F1804F79
:1050E00010D0FFE7029840F20041C4F2000188426C
:1050F00008D0FFE7029840F60001C4F200018842A0
:105100000AD1FFE7009820F4407000900198C16830
:10511000009808430090FFE7009820F08000019974
:1051200049690843009000980299086001988068D6
:105130000299C8620198006802998862029842F652
:105140000041C4F20101884205D1FFE701980069DE
:1051500002990863FFE702990120486103B0704794
:1051600084B0039002910192029800F01F01012087
:1051700088400090009A0399086A90430862019859
:10518000029901F01F0100FA01F20399086A104325
:10519000086204B07047000085B004900391029249
:1051A0000193049880680090009820F47F4000905C
:1051B00003980299019A41EA0221014300980843A9
:1051C000009000980499886005B0704783B0029001
:1051D0000191029880680090009820F07000009083
:1051E00001980099084340F0070000900098029948
:1051F000886003B07047000085B004900391049864
:10520000006A01900499086A20F00100086204987D
:1052100040680090049880690290029820F0700025
:105220000290029820F0030002900398016802980F
:1052300008430290019820F00200019003988168D1
:10524000019808430190049842F60041C4F201011C
:1052500088420ED1FFE7019820F0080001900398E2
:10526000C168019808430190019820F00400019062
:10527000FFE7049842F60041C4F20101884213D1CD
:10528000FFE7009820F480700090009820F40070F0
:105290000090039841690098084300900398816941
:1052A000009808430090FFE700980499486002982E
:1052B00004998861039840680499486301980499A7
:1052C000086205B07047000085B00490039104980F
:1052D000006A01900499086A20F01000086204989E
:1052E00040680090049880690290029820F4E040A1
:1052F0000290029820F4407002900398016802988E
:1053000040EA01200290019820F0200001900398CB
:105310008168019840EA01100190049842F600412A
:10532000C4F2010188420FD1FFE7019820F080000C
:1053300001900398C168019840EA0110019001981A
:1053400020F040000190FFE7049842F60041C4F2CB
:105350000101884215D1FFE7009820F48060009099
:10536000009820F40060009003984169009840EA9A
:105370008100009003988169009840EA81000090C4
:10538000FFE700980499486002980499886103989F
:1053900040680499886301980499086205B07047D1
:1053A00085B0049003910498006A01900499086AFA
:1053B00020F4807008620498406800900498C069E6
:1053C0000290029820F070000290029820F00300F2
:1053D000029003980168029808430290019820F413
:1053E0000070019003988168019840EA01200190C3
:1053F000049842F60041C4F2010188420FD1FFE750
:10540000019820F4006001900398C168019840EA77
:1054100001200190019820F480600190FFE704983A
:1054200042F60041C4F20101884215D1FFE700981D
:1054300020F480500090009820F4005000900398D1
:105440004169009840EA0110009003988169009832
:1054500040EA01100090FFE7009804994860029824
:105460000499C861039840680499C8630198049935
:10547000086205B07047000085B00490039104985D
:10548000006A01900499086A20F480500862049828
:10549000406800900498C0690290029820F4E040AF
:1054A0000290029820F440700290039801680298DC
:1054B00040EA01200290019820F4005001900398E6
:1054C0008168019840EA01300190049842F6004159
:1054D000C4F2010188420BD1FFE7009820F480401C
:1054E000009003984169009840EA81100090FFE71E
:1054F00000980499486002980499C861039840682C
:105500000499086401980499086205B07047000086
:1055100085B00490039102920498006A0090049967
:10552000086A20F0010008620498806901900198DF
:1055300020F0F00001900299019840EA01100190DA
:10554000009820F00A00009003990098084300900A
:1055500001980499886100980499086205B0704721
:1055600085B00490039102920498006A0090049917
:10557000086A20F010000862049880690190019880
:1055800020F4704001900299019840EA01300190A6
:10559000009820F0A00000900399009840EA0110C4
:1055A000009001980499886100980499086205B0F8
:1055B00070470000FFE7FEE780B588B007900691CE
:1055C0000592ADF8123003208DF80E00BDF81A00D8
:1055D0008DF80F000698000A8DF8100006988DF8D7
:1055E000110040F60000C4F2010002901021019168
:1055F0000022FCF773F907980DF10E0104226423D1
:105600000093FDF7E7FB009B07980599BDF8122072
:10561000FDF7BEFA0199024602988DF80D2001228D
:10562000FCF75CF99DF80D0008B080BD81B08DF8E5
:1056300003009DF9030000280ED4FFE79DF9031035
:1056400001F01F02012090404A094EF20011CEF2F3
:10565000000141F82200FFE701B070474EF60C5000
:10566000CEF200000068C0F30220704782B08DF8CF
:10567000070000919DF9070000280AD4FFE7009871
:1056800000019DF907104EF20042CEF2000288544C
:105690000BE0009800019DF8071001F00F014EF695
:1056A0001452CEF200028854FFE702B070470000A7
:1056B00083B00290029800F0070000904EF60C5163
:1056C000CEF200010868019001984FF6FF021040E9
:1056D00001900198009A40EA02200022C0F2FA529A
:1056E000104301900198086003B0704780B58AB0FC
:1056F000002003900990FCF7B7FBFFF779FCFEF759
:10570000BDFFFFF711F8FFF75BF8FFF7C3F8FFF7EE
:105710002FF8FFF77DF8FFF7B3F940F25C60C2F2B3
:105720000000FEF76DFE40F2B460C2F20000FDF72B
:1057300051FF039940F2FC60C2F200000290FEF7B4
:10574000EBFA029903980A681E21516308900790AA
:10575000069005900490FFE740F24C70C2F2000002
:105760000078C007B8B3FFE70898421C50084EF60F
:105770006D61CDF24B11A0FB0110C00A41F29231D4
:1057800000FB11200890089800F04EF8089800F0EF
:1057900023F8FFE740F24C71C2F20001087800F0F4
:1057A000FE000870FFE7FFE70020009007900690DA
:1057B00005900490089A46F2B211C0F6000104A8C0
:1057C0000190FAF78DFD0099019A10230846FFF722
:1057D0000DFAFFE7FFE7BFE780B584B00390002034
:1057E0008DF80B00FFE79DF80B0003281ADCFFE79C
:1057F0009DF80B1040F29822C2F20002C62001FB75
:1058000000236A46106040F25C60C2F200004FF470
:105810000072FEF78FFEFFE79DF80B0001308DF858
:105820000B00E0E704B080BD80B582B00190019824
:105830004FF4467300FB03F140F20460C2F2000033
:1058400040F29822C2F20002FFF7B6FE02B080BD1D
:105850005FEA400C08BF91F0000F4FEA8C234FEA3B
:10586000C12243EA51514FEA1C5018BF00F5F040E5
:105870004FEA300018BF41F000415FEA6C5C00F075
:105880002980BCF1FF3F08BF40F080407047130CF7
:1058900006BF12044FF0100C4FF0000C130E04BFA3
:1058A00012020CF1080C130F04BF12010CF1040CCE
:1058B000930F04BF92000CF1020CD30F04BF5200EF
:1058C0000CF1010C11464FF00002A0F11F00A0EBFB
:1058D0000C00704711F0004F08BF704731F00041D5
:1058E0003FF4D5AF0B0C06BF09044FF0100C4FF07E
:1058F000000C0B0E04BF09020CF1080C0B0F04BFC7
:1059000009010CF1040C8B0F04BF89000CF1020C8F
:10591000CB0F04BF49000CF1010CCCF1200322FA9B
:1059200003F341EA030102FA0CF2A0EB0C0000F1D0
:105930000100704723F07F4720F07F4C80EA03008E
:1059400000F00040ACEB070303F57C5303F1FF03C9
:105950002DE9804909B44FEA144324EA03484FEA89
:10596000154B25EA0B4E0FF2042606EB13273E7863
:1059700003FB0667C7F5000707FB06F64FEAD646A6
:1059800006F102064FEA543707FB066CCCF1005CC7
:105990004FEA1C472CEA074C0CFB06F507FB06F404
:1059A00004EB15464FEA961649085FEA320234BF07
:1059B00000204FF000404FEAD13706FB07FC4FEACA
:1059C0001C4C0CFB0BF7D21B03FB0CF761EB070124
:1059D0000CFB0EF7B0EB074072EB17420CFB08F71D
:1059E00034BFA2EB0742B2EB074261EB17414FEA2B
:1059F0000C444FEA910706FB07FC4FEA1C4C0CFBDA
:105A00000BF7B0EBC74072EB573203FB0CF734BF18
:105A1000A2EBC742B2EBC74261EB57310CFB0EF76A
:105A2000B0EBC70072EB57720CFB08F734BFA2EB68
:105A3000C702B2EBC70261EB57714FEA816141EADD
:105A400092114FEA826242EA90124FEA806004EBC0
:105A5000CC04039F4FEAD13706FB07FC4FEA1C4CEE
:105A60000CFB0BF7D21B03FB0CF761EB07010CFBE4
:105A70000EF7B0EB074072EB17420CFB08F734BF90
:105A8000A2EB0742B2EB074261EB17414FEA8C559C
:105A900004EB9C244FEA910706FB07FC4FEA1C4CE1
:105AA0000CFB0BF7B0EBC74072EB573203FB0CF764
:105AB00034BFA2EBC742B2EBC74261EB57310CFBDC
:105AC0000EF7B0EBC70072EB57720CFB08F734BF50
:105AD000A2EBC702B2EBC70261EB57714FEA8161DB
